:100000000C942A000C943F000C943F000C943F0089
:100010000C943F000C943F000C943F000C943F0064
:100020000C943F000C943F000C943F000C943F0054
:100030000C943F000C943F000C943F000C943F0044
:100040000C943F000C943F000C943F000C943F0034
:100050000C943F0011241FBECFE5D8E0DEBFCDBF1A
:1000600011E0A0E6B0E0E0E7FEE302C005900D92EB
:10007000AA37B107D9F70E944C110C94361F0C9483
:100080000000EF92FF920F931F937B018C0120E001
:1000900030E040E05FE40E94410388238CF0C80117
:1000A000B70120E030E040E05FE40E94B9010E9427
:1000B000A1039B01AC01205030404040504806C095
:1000C000C801B7010E94A1039B01AC01B901CA019B
:1000D0001F910F91FF90EF900895A0E0B0E0E3E74B
:1000E000F0E00C94FF1EDC012B01FA019C91923090
:1000F00008F439C1EB018881823008F433C19430AF
:1001000069F4843009F02FC111969C91119789816F
:10011000981709F428C1A1E6B1E025C1843009F49B
:1001200021C18230A9F4923009F01DC19A01AD01BC
:1001300088E0EA010990AE01E90109929E0181502F
:10014000C1F7E201898111969C918923818308C1BD
:10015000923009F407C112962D903C901397EB0151
:100160008A819B811496AD90BD90CD90DC901797BD
:10017000EC80FD800E811F819101281B390BB90194
:1001800037FF04C066277727621B730B6032710547
:100190000CF061C0121613066CF537014801062EEB
:1001A00004C096948794779467940A94D2F721E0D8
:1001B00030E040E050E004C0220F331F441F551FC1
:1001C0006A95D2F721503040404050402E213F21C7
:1001D00040235123211531054105510521F021E02E
:1001E00030E040E050E079018A01E628F72808294C
:1001F00019293CC0232BD1F1260E371E35014601AB
:10020000062E04C096948794779467940A94D2F744
:1002100021E030E040E050E004C0220F331F441FD3
:10022000551F6A95D2F721503040404050402A2156
:100230003B214C215D21211531054105510521F05E
:1002400021E030E040E050E059016A01A628B728DB
:10025000C828D9280BC0821593052CF01C01AA24AC
:10026000BB24650103C0EE24FF24870111969C91F5
:10027000D20111968C91981709F445C0992339F051
:10028000A80197012A193B094C095D0906C0A6017E
:1002900095012E193F09400B510B57FD08C01182E3
:1002A0003382228224833583468357831DC081E0B5
:1002B00081833382228288279927DC01821B930B5A
:1002C000A40BB50B84839583A683B7830DC0220F3F
:1002D000331F441F551F24833583468357838281F0
:1002E000938101979383828324813581468157814D
:1002F000DA01C9010197A109B1098F5F9F4FAF4F83
:10030000BF4328F30BC0918333822282EA0CFB1C8B
:100310000C1D1D1DE482F5820683178383E0808314
:10032000248135814681578157FF1AC0C901AA2708
:1003300097FDA095BA2F81709070A070B0705695FF
:10034000479537952795822B932BA42BB52B848328
:100350009583A683B7838281938101969383828359
:10036000DF0101C0D201CD01CDB7DEB7E2E10C94CF
:100370001B1FA0E2B0E0EFEBF1E00C940B1F6983D0
:100380007A838B839C832D833E834F835887E9E058
:10039000EE2EF12CEC0EFD1ECE010196B7010E944F
:1003A000CA048E010F5E1F4FCE010596B8010E9450
:1003B000CA048A8991E089278A8BC701B801AE01F6
:1003C000475E5F4F0E946D000E94F503A096E6E035
:1003D0000C94271FA0E2B0E0E0EFF1E00C940B1FBB
:1003E00069837A838B839C832D833E834F835887D5
:1003F000F9E0EF2EF12CEC0EFD1ECE010196B701B7
:100400000E94CA048E010F5E1F4FCE010596B801EF
:100410000E94CA04C701B801AE01475E5F4F0E9447
:100420006D000E94F503A096E6E00C94271FA0E261
:10043000B0E0EDE1F2E00C94FF1E69837A838B83D8
:100440009C832D833E834F835887CE010196BE0146
:10045000675F7F4F0E94CA04CE010596BE016F5EA2
:100460007F4F0E94CA049985923088F08989823032
:10047000C8F0943019F4823051F404C0843029F467
:10048000923081F481E691E0C6C0923049F420E0D8
:100490009A858A89981321E02A87CE010996BBC0E4
:1004A000823049F420E09A858A89981321E02A8BCA
:1004B000CE014196B0C02D843E844F8458886D880B
:1004C0007E888F88988CEE24FF248701AA24BB2481
:1004D000650140E050E060E070E0E0E0F0E0C10184
:1004E00081709070892BE9F0E60CF71C081D191D2E
:1004F0009A01AB012A0D3B1D4C1D5D1D80E090E073
:10050000A0E0B0E0E614F7040805190520F481E046
:1005100090E0A0E0B0E0BA01A901480F591F6A1F9E
:100520007B1FAA0CBB1CCC1CDD1C97FE08C081E005
:1005300090E0A0E0B0E0A82AB92ACA2ADB2A3196C6
:10054000E032F10549F0660C771C881C991C569422
:10055000479437942794C3CFFA85EA892B893C893D
:100560008B859C85280F391F2E5F3F4F17C0CA010E
:1005700081709070892B61F016950795F794E79438
:1005800080E090E0A0E0B0E8E82AF92A0A2B1B2BD3
:1005900076956795579547952F5F3F4F77FDE7CF46
:1005A0000CC0440F551F661F771F17FD4160EE0CEE
:1005B000FF1C001F111F21503040403090E05907B0
:1005C00090E0690790E4790760F32B8F3C8FDB01A3
:1005D000CA018F779070A070B07080349105A1052A
:1005E000B10561F447FD0AC0E114F10401051105EC
:1005F00029F0405C5F4F6F4F7F4F40781A8EFE1797
:1006000011F081E08A8F4D8F5E8F6F8F78A383E02A
:10061000898FCE0149960E94F503A096E2E10C94E1
:100620001B1FA8E1B0E0E7E1F3E00C940B1F698326
:100630007A838B839C832D833E834F83588789E005
:10064000E82EF12CEC0EFD1ECE010196B7010E94A2
:10065000CA048E010F5E1F4FCE010596B8010E949D
:10066000CA048985823040F08989823028F0C70128
:10067000B8010E94420501C08FEF6896E6E00C9435
:10068000271FA8E1B0E0E7E4F3E00C940B1F6983B7
:100690007A838B839C832D833E834F83588789E0A5
:1006A000E82EF12CEC0EFD1ECE010196B7010E9442
:1006B000CA048E010F5E1F4FCE010596B8010E943D
:1006C000CA048985823040F08989823028F0C701C8
:1006D000B8010E94420501C08FEF6896E6E00C94D5
:1006E000271FA8E1B0E0E7E7F3E00C940B1F698354
:1006F0007A838B839C832D833E834F83588789E045
:10070000E82EF12CEC0EFD1ECE010196B7010E94E1
:10071000CA048E010F5E1F4FCE010596B8010E94DC
:10072000CA048985823040F08989823028F0C70167
:10073000B8010E94420501C081E06896E6E00C9491
:10074000271FACE0B0E0E7EAF3E00C940F1F6983E9
:100750007A838B839C83CE010196BE016B5F7F4FB2
:100760000E94CA048D81823061F1823050F1843060
:1007700021F48E81882351F12EC02F81388537FDD9
:1007800020C06E812F3131051CF06623F9F023C0A3
:100790008EE190E0821B930B29853A854B855C8521
:1007A00004C056954795379527958A95D2F76623C5
:1007B000B1F050954095309521953F4F4F4F5F4F89
:1007C0000EC020E030E040E050E009C02FEF3FEFE6
:1007D0004FEF5FE704C020E030E040E050E8B901AF
:1007E000CA012C96E2E00C942B1FDF92EF92FF924D
:1007F0000F931F93FC01E480F58006811781D1805F
:100800008081823048F480E090E0A0E1B0E0E82A06
:10081000F92A0A2B1B2BA5C0843009F49FC0823013
:1008200021F4EE24FF24870105C0E114F104010541
:10083000110519F4E0E0F0E096C0628173819FEF4A
:10084000623879070CF05BC022E83FEF261B370BBC
:100850002A3131052CF020E030E040E050E02AC0A1
:10086000B801A701022E04C0769567955795479564
:100870000A94D2F781E090E0A0E0B0E004C0880FD5
:10088000991FAA1FBB1F2A95D2F70197A109B10989
:100890008E219F21A023B1230097A105B10521F04E
:1008A00081E090E0A0E0B0E09A01AB01282B392B69
:1008B0004A2B5B2BDA01C9018F779070A070B07062
:1008C00080349105A105B10539F427FF09C0205CEA
:1008D0003F4F4F4F5F4F04C0215C3F4F4F4F5F4F23
:1008E000E0E0F0E02030A0E03A07A0E04A07A0E412
:1008F0005A0710F0E1E0F0E079018A0127C0603882
:10090000710564F5FB01E158FF4FD801C7018F77EE
:100910009070A070B07080349105A105B10539F4D4
:10092000E7FE0DC080E490E0A0E0B0E004C08FE3FB
:1009300090E0A0E0B0E0E80EF91E0A1F1B1F17FFB1
:1009400005C016950795F794E794319687E01695BC
:100950000795F794E7948A95D1F705C0EE24FF2414
:100960008701EFEFF0E06E2F679566276795902F70
:100970009F77D794DD24D7948E2F8695492F462BC9
:10098000582F5D29B701CA011F910F91FF90EF9079
:10099000DF900895FC01DB01408151812281622FAB
:1009A0006F7770E0221F2227221F9381892F880FE3
:1009B000822B282F30E0991F9927991F11969C931D
:1009C000119721153105A9F54115510561057105ED
:1009D00011F482E037C082E89FEF13969C938E93C8
:1009E00012979A01AB0167E0220F331F441F551F76
:1009F0006A95D1F783E08C930DC0220F331F441FFB
:100A0000551F12968D919C911397019713969C9365
:100A10008E931297203080E0380780E0480780E40A
:100A2000580758F314962D933D934D935C93179765
:100A300008952F3F310579F4411551056105710580
:100A400019F484E08C93089564FF03C081E08C93D3
:100A500012C01C9210C02F57304013963C932E9317
:100A6000129783E08C9387E0440F551F661F771F12
:100A70008A95D1F7706414964D935D936D937C9332
:100A8000179708951F93DC01FB019C91923008F4A5
:100A900047C08081823008F443C0943051F41196ED
:100AA0001C91843099F58181682F70E0611B710978
:100AB0003FC0843021F0923031F48230B9F181812D
:100AC000882389F12DC011961C9111978230F1F085
:100AD00081811817D9F412962D913C911397828138
:100AE00093818217930794F028173907BCF0149666
:100AF0008D919D910D90BC91A02D248135814681D1
:100B00005781281739074A075B0718F4112341F06A
:100B10000AC082179307A407B50740F4112319F000
:100B200061E070E005C06FEF7FEF02C060E070E051
:100B3000CB011F910895DF93CF9300D000D00F9287
:100B4000CDB7DEB78A836B8319828A81282F30E084
:100B50003D832C838C819D8181309105D1F02C8146
:100B60003D81223031052CF48C819D81009761F00C
:100B70001FC02C813D812230310581F08C819D8107
:100B80008330910581F014C0EAE3F0E08B8180832B
:100B900011C0E7E3F0E08B8180830CC0E4E3F0E078
:100BA0008B81808307C0E1E3F0E08B81808302C00A
:100BB00081E0898389810F900F900F900F900F90A3
:100BC000CF91DF910895DF93CF9300D000D00F92A3
:100BD000CDB7DEB78A836B8319828A81282F30E0F4
:100BE0003D832C838C819D8181309105D1F02C81B6
:100BF0003D81223031052CF48C819D81009761F07C
:100C00001FC02C813D812230310581F08C819D8176
:100C10008330910581F014C0EBE3F0E08B81808399
:100C200011C0E8E3F0E08B8180830CC0E5E3F0E0E5
:100C30008B81808307C0E2E3F0E08B81808302C078
:100C400081E0898389810F900F900F900F900F9012
:100C5000CF91DF910895DF93CF9300D000D000D0E3
:100C6000CDB7DEB78A837C836B8319828A81282F74
:100C700030E03E832D838D819E8181309105E1F0AE
:100C80002D813E81223031052CF48D819E8100978B
:100C900061F027C02D813E8122303105A1F08D8188
:100CA0009E8183309105B1F01CC0E9E3F0E08081C2
:100CB000EB81FC81808317C0E6E3F0E08081EB816B
:100CC000FC81808310C0E3E3F0E08081EB81FC8154
:100CD000808309C0E0E3F0E08081EB81FC818083C8
:100CE00002C081E08983898126960FB6F894DEBF21
:100CF0000FBECDBFCF91DF910895DF93CF93CDB7D6
:100D0000DEB728970FB6F894DEBF0FBECDBF8A833B
:100D10006B834C8319828B81883008F0F4C08C81FE
:100D2000882309F077C08A81282F30E038872F8305
:100D30008F8198858130910559F12F813885223036
:100D400031052CF48F819885009769F060C02F8160
:100D500038852230310589F18F819885833091055E
:100D600009F440C054C0AAE3B0E0EAE3F0E08081B7
:100D7000482F8B81282F30E081E090E0022E02C0C6
:100D8000880F991F0A94E2F7809584238C93BDC045
:100D9000A7E3B0E0E7E3F0E08081482F8B81282FC4
:100DA00030E081E090E0022E02C0880F991F0A9483
:100DB000E2F7809584238C93A8C0A4E3B0E0E4E339
:100DC000F0E08081482F8B81282F30E081E090E097
:100DD000022E02C0880F991F0A94E2F7809584239F
:100DE0008C9393C0A1E3B0E0E1E3F0E08081482F71
:100DF0008B81282F30E081E090E0022E02C0880F26
:100E0000991F0A94E2F7809584238C937EC081E039
:100E100089837BC08C81813009F072C08A81282F40
:100E200030E03E832D838D819E818130910549F193
:100E30002D813E81223031052CF48D819E810097D9
:100E400061F05BC02D813E812230310571F18D81D1
:100E50009E8183309105E9F150C0AAE3B0E0EAE356
:100E6000F0E08081482F8B81282F30E081E090E0F6
:100E7000022E02C0880F991F0A94E2F7842B8C93EC
:100E800044C0A7E3B0E0E7E3F0E08081482F8B8126
:100E9000282F30E081E090E0022E02C0880F991FD9
:100EA0000A94E2F7842B8C9330C0A4E3B0E0E4E32F
:100EB000F0E08081482F8B81282F30E081E090E0A6
:100EC000022E02C0880F991F0A94E2F7842B8C939C
:100ED0001CC0A1E3B0E0E1E3F0E08081482F8B810A
:100EE000282F30E081E090E0022E02C0880F991F89
:100EF0000A94E2F7842B8C9308C081E0898305C0B3
:100F000081E0898302C081E08983898128960FB6B8
:100F1000F894DEBF0FBECDBFCF91DF910895DF9370
:100F2000CF93CDB7DEB728970FB6F894DEBF0FBECC
:100F3000CDBF8A836B834C8319828B81883008F004
:100F4000F4C08C81882309F077C08A81282F30E093
:100F500038872F838F8198858130910559F12F81B2
:100F60003885223031052CF48F819885009769F0FF
:100F700060C02F8138852230310589F18F819885B5
:100F80008330910509F440C054C0ABE3B0E0EBE31B
:100F9000F0E08081482F8B81282F30E081E090E0C5
:100FA000022E02C0880F991F0A94E2F780958423CD
:100FB0008C93BDC0A8E3B0E0E8E3F0E08081482F67
:100FC0008B81282F30E081E090E0022E02C0880F54
:100FD000991F0A94E2F7809584238C93A8C0A5E317
:100FE000B0E0E5E3F0E08081482F8B81282F30E0EE
:100FF00081E090E0022E02C0880F991F0A94E2F768
:10100000809584238C9393C0A2E3B0E0E2E3F0E008
:101010008081482F8B81282F30E081E090E0022EE4
:1010200002C0880F991F0A94E2F7809584238C935D
:101030007EC081E089837BC08C81813009F072C0E1
:101040008A81282F30E03E832D838D819E818130DF
:10105000910549F12D813E81223031052CF48D819D
:101060009E81009761F05BC02D813E812230310569
:1010700071F18D819E8183309105E9F150C0ABE320
:10108000B0E0EBE3F0E08081482F8B81282F30E047
:1010900081E090E0022E02C0880F991F0A94E2F7C7
:1010A000842B8C9344C0A8E3B0E0E8E3F0E08081B7
:1010B000482F8B81282F30E081E090E0022E02C083
:1010C000880F991F0A94E2F7842B8C9330C0A5E314
:1010D000B0E0E5E3F0E08081482F8B81282F30E0FD
:1010E00081E090E0022E02C0880F991F0A94E2F777
:1010F000842B8C931CC0A2E3B0E0E2E3F0E080819B
:10110000482F8B81282F30E081E090E0022E02C032
:10111000880F991F0A94E2F7842B8C9308C081E012
:10112000898305C081E0898302C081E08983898148
:1011300028960FB6F894DEBF0FBECDBFCF91DF91DA
:101140000895DF93CF93CDB7DEB727970FB6F89406
:10115000DEBF0FBECDBF8A836B835D834C83198254
:101160008B81883008F0A5C08A81282F30E03F832A
:101170002E834E815F8141305105C1F18E819F8167
:101180008230910534F42E813F812115310571F0B3
:101190008DC04E815F814230510509F447C08E8178
:1011A0009F818330910509F461C080C0E9E3F0E0DC
:1011B0008081482F50E08B81282F30E081E090E043
:1011C00002C0880F991F2A95E2F79A012823392334
:1011D0008B81882F90E0A90102C0559547958A958B
:1011E000E2F7CA01EC81FD81808365C0E6E3F0E0AF
:1011F0008081482F50E08B81282F30E081E090E003
:1012000002C0880F991F2A95E2F79A0128233923F3
:101210008B81882F90E0A90102C0559547958A954A
:10122000E2F7CA01EC81FD81808345C0E3E3F0E091
:101230008081482F50E08B81282F30E081E090E0C2
:1012400002C0880F991F2A95E2F79A0128233923B3
:101250008B81882F90E0A90102C0559547958A950A
:10126000E2F7CA01EC81FD81808325C0E0E3F0E074
:101270008081482F50E08B81282F30E081E090E082
:1012800002C0880F991F2A95E2F79A012823392373
:101290008B81882F90E0A90102C0559547958A95CA
:1012A000E2F7CA01EC81FD81808305C081E089837A
:1012B00002C081E08983898127960FB6F894DEBF4A
:1012C0000FBECDBFCF91DF910895DF93CF93CDB700
:1012D000DEB788E30E94750ECF91DF910895DF930A
:1012E000CF93CDB7DEB788E20E94750ECF91DF9124
:1012F0000895DF93CF93CDB7DEB78CE00E94750ED3
:10130000CF91DF910895DF93CF93CDB7DEB788E01B
:101310000E94750ECF91DF910895DF93CF93CDB7E3
:10132000DEB78EE00E94750ECF91DF910895DF93B6
:10133000CF93CDB7DEB78AE00E94750ECF91DF91D3
:101340000895DF93CF93CDB7DEB78FE00E94750E7F
:10135000CF91DF910895DF93CF93CDB7DEB780E1D2
:101360000E94750ECF91DF910895DF93CF93CDB793
:10137000DEB784E10E94750ECF91DF910895DF936F
:10138000CF93CDB7DEB788E10E94750ECF91DF9184
:101390000895DF93CF93CDB7DEB78CE10E94750E31
:1013A000CF91DF910895DF93CF93CDB7DEB780E87B
:1013B0000E94750ECF91DF910895DF93CF93CDB743
:1013C000DEB780EC0E94750ECF91DF910895DF9318
:1013D000CF93CDB7DEB781E00E94750ECF91DF913C
:1013E0000895DF93CF93CDB7DEB786E00E94750EE8
:1013F000CF91DF910895DF93CF9300D000D0CDB788
:10140000DEB769837A838B839C8389819A81AB81E0
:10141000BC8188309105A105B105A8F489819A8124
:10142000AB81BC810896A11DB11D880F991FAA1F11
:10143000BB1F880F991FAA1FBB1F880F991FAA1FC8
:10144000BB1F0E94750E0F900F900F900F90CF91C1
:10145000DF910895DF93CF9300D000D000D0CDB7B7
:10146000DEB79E838D8319821A821B821C8220C064
:1014700029813A818D819E81FC01E20FF31F8081D9
:101480000E94130F89819A81AB81BC810196A11DB5
:10149000B11D89839A83AB83BC8389819A81AB8197
:1014A000BC8180319105A105B10511F40E94DD09CF
:1014B00029813A818D819E81FC01E20FF31F808199
:1014C0008823B1F626960FB6F894DEBF0FBECDBFC7
:1014D000CF91DF910895EF92FF920F931F93DF93C7
:1014E000CF93CDB7DEB769970FB6F894DEBF0FBEC6
:1014F000CDBF688B798B8A8B9B8B2DB73EB7398F8D
:10150000288F8DB79EB79D8B8C8B88899989AA89E6
:10151000BB898A879B87AC87BD871986888999890B
:10152000AA89BB890097A105B10519F480E30E943F
:10153000130F88899989AA89BB89BB23BCF58DE2E1
:101540000E94130F8A859B85AC85BD85B095A095BB
:10155000909581959F4FAF4FBF4F8A879B87AC87F0
:10156000BD8788899989AA89BB89B095A0959095EE
:1015700081959F4FAF4FBF4F888B998BAA8BBB8BA9
:1015800015C08A859B85AC85BD852AE030E040E0AA
:1015900050E0BC01CD010E94C21EDA01C9018A8758
:1015A0009B87AC87BD8789858F5F89878A859B8567
:1015B000AC85BD850097A105B10519F78985882FF0
:1015C00090E02DB73EB7281B390B0FB6F8943EBFFD
:1015D0000FBE2DBF8DB79EB701969F8B8E8B8E89C8
:1015E0009F8900969F8B8E8B2E893F893F872E8700
:1015F0008985882F90E00197AA2797FDA095BA2F9B
:101600008D839E83AF83B88737C0ED80FE800F81C6
:10161000188588899989AA89BB892AE030E040E049
:1016200050E0BC01CD010E94C21EDC01CB01282F7D
:10163000205D8E859F85FC01EE0DFF1D208388892E
:101640009989AA89BB892AE030E040E050E0BC01DA
:10165000CD010E94C21EDA01C901888B998BAA8B29
:10166000BB8B8D819E81AF81B8850197A109B1099E
:101670008D839E83AF83B8878D819E81AF81B8852E
:10168000BB231CF619821A821B821C8217C0898117
:101690009A81AB81BC812E853F85F901E80FF91F46
:1016A00080810E94130F89819A81AB81BC81019650
:1016B000A11DB11D89839A83AB83BC838985282FA3
:1016C00030E040E050E089819A81AB81BC81821793
:1016D0009307A407B507D8F28C899D890FB6F894B3
:1016E0009EBF0FBE8DBF288D398D0FB6F8943EBFBB
:1016F0000FBE2DBF69960FB6F894DEBF0FBECDBFEB
:10170000CF91DF911F910F91FF90EF900895DF939C
:10171000CF9300D000D00F92CDB7DEB78A836B8312
:1017200019828B818031E0F48A81282F30E03D835B
:101730002C838C819D81009731F02C813D8121305B
:10174000310531F00AC08B8180580E94750E0AC0A5
:101750008B8180540E94750E05C081E0898302C090
:1017600081E0898389810F900F900F900F900F90E7
:10177000CF91DF910895DF93CF93CDB7DEB72A974E
:101780000FB6F894DEBF0FBECDBF9E838D834F830F
:10179000588769877A878F819885A985BA85BC0122
:1017A000CD010E94FB0919821A821B821C8215C07E
:1017B00029813A818D819E81FC01E20FF31F808196
:1017C0000E94130F89819A81AB81BC810196A11D72
:1017D000B11D89839A83AB83BC8389819A81AB8154
:1017E000BC8188309105A105B10510F32A960FB68A
:1017F000F894DEBF0FBECDBFCF91DF9108950F9358
:101800001F93DF93CF93CDB7DEB7C654D0400FB64A
:10181000F894DEBF0FBECDBF82E06FEF0E949B0544
:1018200083E067E00E949B05FE01ED5BFF4F80E0D7
:1018300090E0A0E2B2E480839183A283B3838E011F
:10184000015C1F4FFE01ED5BFF4F60817181828162
:10185000938120E030E04AEF54E40E941702DC015B
:10186000CB01F80180839183A283B383FE01FF96AD
:10187000608171818281938120E030E040E85FE304
:101880000E94710388232CF481E090E09EAF8DAF1D
:1018900046C0FE01FF96608171818281938120E0C4
:1018A0003FEF4FE757E40E941103181664F5FE015D
:1018B000ED5BFF4F608171818281938120E030E098
:1018C00040E251E40E941702DC01CB01BC01CD01D2
:1018D0000E944100DC01CB019EAF8DAF0FC088ECB0
:1018E00090E09CAF8BAF8BAD9CAD0197F1F79CAFB7
:1018F0008BAF8DAD9EAD01979EAF8DAF8DAD9EAD83
:10190000009769F716C0FE01FF96608171818281A0
:1019100093810E944100DC01CB019EAF8DAF8DAD64
:101920009EAD9AAF89AF89AD9AAD0197F1F79AAFA5
:1019300089AF0E94650980E090E0A0E8BFE38DAB2D
:101940009EABAFABB8AF6DA97EA98FA998AD20E0D3
:1019500030E04AEF54E40E941702DC01CB0189AB6E
:101960009AABABABBCAB69A97AA98BA99CA920E0C7
:1019700030E040E85FE30E94710388232CF481E0AB
:1019800090E098AB8FA73FC069A97AA98BA99CA9C1
:1019900020E03FEF4FE757E40E94110318164CF583
:1019A0006DA97EA98FA998AD20E030E040E251E416
:1019B0000E941702DC01CB01BC01CD010E94410055
:1019C000DC01CB0198AB8FA70FC088EC90E09EA7FD
:1019D0008DA78DA59EA50197F1F79EA78DA78FA531
:1019E00098A9019798AB8FA78FA598A9009769F739
:1019F00014C069A97AA98BA99CA90E944100DC01A5
:101A0000CB0198AB8FA78FA598A99CA78BA78BA577
:101A10009CA50197F1F79CA78BA70E94790980E00C
:101A200090E0A0E8BFE38FA398A7A9A7BAA76FA1EA
:101A300078A589A59AA520E030E04AEF54E40E94F9
:101A40001702DC01CB018BA39CA3ADA3BEA36BA1AA
:101A50007CA18DA19EA120E030E040E85FE30E94E0
:101A6000710388232CF481E090E09AA389A33FC0FE
:101A70006BA17CA18DA19EA120E03FEF4FE757E431
:101A80000E94110318164CF56FA178A589A59AA597
:101A900020E030E040E251E40E941702DC01CB017B
:101AA000BC01CD010E944100DC01CB019AA389A3B6
:101AB0000FC088EC90E098A38F8F8F8D98A101972D
:101AC000F1F798A38F8F89A19AA101979AA389A36F
:101AD00089A19AA1009769F714C06BA17CA18DA17F
:101AE0009EA10E944100DC01CB019AA389A389A198
:101AF0009AA19E8F8D8F8D8D9E8D0197F1F79E8F70
:101B00008D8F0E94E70980E090E0A0E4B0E4898F27
:101B10009A8FAB8FBC8F698D7A8D8B8D9C8D20E0D9
:101B200030E04AEF54E40E941702DC01CB018D8BB8
:101B30009E8BAF8BB88F6D897E898F89988D20E0C1
:101B400030E040E85FE30E94710388232CF481E0D9
:101B500090E09C8B8B8B3FC06D897E898F89988D9F
:101B600020E03FEF4FE757E40E94110318164CF5B1
:101B7000698D7A8D8B8D9C8D20E030E040E251E4C0
:101B80000E941702DC01CB01BC01CD010E94410083
:101B9000DC01CB019C8B8B8B0FC088EC90E09A8B87
:101BA000898B89899A890197F1F79A8B898B8B891F
:101BB0009C8901979C8B8B8B8B899C89009769F7FB
:101BC00014C06D897E898F89988D0E944100DC0147
:101BD000CB019C8B8B8B8B899C89988B8F878F8576
:101BE00098890197F1F7988B8F870E94F10980E01F
:101BF00090E0A0E8BFE38B879C87AD87BE876B85AD
:101C00007C858D859E8520E030E04AEF54E40E947B
:101C10001702DC01CB018F839887A987BA876F8170
:101C2000788589859A8520E030E040E85FE30E946E
:101C3000710388232CF481E090E09E838D833FC064
:101C40006F81788589859A8520E03FEF4FE757E4DB
:101C50000E94110318164CF56B857C858D859E8539
:101C600020E030E040E251E40E941702DC01CB01A9
:101C7000BC01CD010E944100DC01CB019E838D831C
:101C80000FC088EC90E09C838B838B819C810197B3
:101C9000F1F79C838B838D819E8101979E838D8339
:101CA0008D819E81009769F714C06F817885898541
:101CB0009A850E944100DC01CB019E838D838D813A
:101CC0009E819A83898389819A810197F1F79A830A
:101CD0008983CA5BDF4F0FB6F894DEBF0FBECDBF5E
:101CE000CF91DF911F910F910895DF93CF93CDB7DF
:101CF000DEB72F970FB6F894DEBF0FBECDBF8F872C
:101D000083E062E040E00E948F0783E061E040E012
:101D10000E948F0783E060E041E00E948F0782E02D
:101D20006F850E94E30583E060E040E00E948F073A
:101D300080E090E0A0E0B0E48B879C87AD87BE8711
:101D40006B857C858D859E8520E030E04AEF54E4EC
:101D50000E941702DC01CB018F839887A987BA877D
:101D60006F81788589859A8520E030E040E85FE3DF
:101D70000E94710388232CF481E090E09E838D8380
:101D80003FC06F81788589859A8520E03FEF4FE7D6
:101D900057E40E94110318164CF56B857C858D85E0
:101DA0009E8520E030E040E251E40E941702DC0111
:101DB000CB01BC01CD010E944100DC01CB019E831F
:101DC0008D830FC088EC90E09C838B838B819C81FA
:101DD0000197F1F79C838B838D819E8101979E8370
:101DE0008D838D819E81009769F714C06F817885FE
:101DF00089859A850E944100DC01CB019E838D83F9
:101E00008D819E819A83898389819A810197F1F7D7
:101E10009A8389832F960FB6F894DEBF0FBECDBF8D
:101E2000CF91DF910895DF93CF93CDB7DEB72F9792
:101E30000FB6F894DEBF0FBECDBF8F8783E062E0A0
:101E400041E00E948F0783E061E040E00E948F073D
:101E500083E060E041E00E948F0782E06F850E948E
:101E6000E30583E060E040E00E948F0780E090E0BF
:101E7000A0E0B0E48B879C87AD87BE876B857C85AF
:101E80008D859E8520E030E04AEF54E40E941702E1
:101E9000DC01CB018F839887A987BA876F8178850A
:101EA00089859A8520E030E040E85FE30E94710375
:101EB00088232CF481E090E09E838D833FC06F8166
:101EC000788589859A8520E03FEF4FE757E40E94A7
:101ED000110318164CF56B857C858D859E8520E059
:101EE00030E040E251E40E941702DC01CB01BC016A
:101EF000CD010E944100DC01CB019E838D830FC088
:101F000088EC90E09C838B838B819C810197F1F717
:101F10009C838B838D819E8101979E838D838D8190
:101F20009E81009769F714C06F81788589859A85AD
:101F30000E944100DC01CB019E838D838D819E81B7
:101F40009A83898389819A810197F1F79A8389839A
:101F50002F960FB6F894DEBF0FBECDBFCF91DF91A5
:101F60000895DF93CF93CDB7DEB780E060E040E027
:101F70000E947D0680E061E040E00E947D0680E0F6
:101F800062E040E00E947D0680E063E040E00E9465
:101F90007D0680E064E041E00E947D0680E065E02F
:101FA00041E00E947D0680E066E041E00E947D06FF
:101FB00080E067E041E00E947D0680E060E041E073
:101FC0000E948F0780E061E041E00E948F0780E07F
:101FD00062E041E00E948F0780E063E041E00E9400
:101FE0008F0780E064E041E00E948F0780E065E0B9
:101FF00041E00E948F0780E066E041E00E948F0789
:1020000080E067E041E00E948F07CF91DF91089563
:10201000DF93CF93CDB7DEB7A0970FB6F894DEBFAE
:102020000FBECDBF8FEF8F8F84E08E8F27C180E0F2
:102030006E8D40E00E948F071D8E14C19E01205EB0
:102040003F4F80E06D8DA9010E94A10888A18823DF
:1020500009F005C18D8D482F50E08E8D882F90E0BE
:102060009C0124503040CA01880F991F880F991F86
:10207000820F931FFC01E759FE4F80818F8F80E014
:1020800090E0A0EAB0E4898F9A8FAB8FBC8F698D06
:102090007A8D8B8D9C8D20E030E04AEF54E40E94D5
:1020A0001702DC01CB018D8B9E8BAF8BB88F6D89B6
:1020B0007E898F89988D20E030E040E85FE30E94C0
:1020C000710388232CF481E090E09C8B8B8B3FC0C4
:1020D0006D897E898F89988D20E03FEF4FE757E427
:1020E0000E94110318164CF5698D7A8D8B8D9C8D8D
:1020F00020E030E040E251E40E941702DC01CB0115
:10210000BC01CD010E944100DC01CB019C8B8B8B7B
:102110000FC088EC90E09A8B898B89899A89019706
:10212000F1F79A8B898B8B899C8901979C8B8B8B80
:102130008B899C89009769F71DC06D897E898F897D
:10214000988D0E944100DC01CB019C8B8B8B8B898D
:102150009C89988B8F878F8598890197F1F7988B49
:102160008F8708C09E01205E3F4F80E06D8DA901E2
:102170000E94A10888A18823A9F380E090E0A0EA4A
:10218000B0E48B879C87AD87BE876B857C858D850A
:102190009E8520E030E04AEF54E40E941702DC0103
:1021A000CB018F839887A987BA876F8178858985C6
:1021B0009A8520E030E040E85FE30E9471038823C5
:1021C0002CF481E090E09E838D833FC06F81788501
:1021D00089859A8520E03FEF4FE757E40E9411037D
:1021E00018164CF56B857C858D859E8520E030E04A
:1021F00040E251E40E941702DC01CB01BC01CD0199
:102200000E944100DC01CB019E838D830FC088ECCE
:1022100090E09C838B838B819C810197F1F79C8359
:102220008B838D819E8101979E838D838D819E817D
:10223000009769F714C06F81788589859A850E9417
:102240004100DC01CB019E838D838D819E819A8329
:10225000898389819A810197F1F79A8389838D8D8A
:102260008F5F8D8F8D8D843008F4E8CE80E06E8D89
:1022700041E00E948F078E8D8F5F8E8F8E8D88300C
:1022800008F4D5CE8F8DA0960FB6F894DEBF0FBEA2
:10229000CDBFCF91DF9108950F931F93DF93CF931D
:1022A000CDB7DEB7C151D1400FB6F894DEBF0FBE37
:1022B000CDBF81E063E00E949B050E94FF0B0E945E
:1022C000B10F80E064E00E94870B80E690E00E94FE
:1022D0002A0AFE01E153FF4F80E090E0A0EFB1E455
:1022E00080839183A283B3838E0105531F4FFE0128
:1022F000E153FF4F608171818281938120E030E062
:102300004AEF54E40E941702DC01CB01F8018083FC
:102310009183A283B383FE01E553FF4F60817181F6
:102320008281938120E030E040E85FE30E94710306
:10233000882344F4FE01E753FF4F81E090E091834E
:10234000808364C0FE01E553FF4F6081718182810B
:10235000938120E03FEF4FE757E40E9411031816E6
:102360000CF043C0FE01E153FF4F60817181828117
:10237000938120E030E040E251E40E941702DC014A
:10238000CB018E0107531F4FBC01CD010E944100BC
:10239000DC01CB01F801918380831FC0FE01E9536A
:1023A000FF4F88EC90E091838083FE01E953FF4F5B
:1023B000808191810197F1F7FE01E953FF4F9183ED
:1023C0008083DE01A753BF4FFE01E753FF4F80819B
:1023D0009181019711969C938E93FE01E753FF4FD5
:1023E000808191810097D1F627C08E0107531F4F3E
:1023F000FE01E553FF4F60817181828193810E94CC
:102400004100DC01CB01F80191838083DE01AB53F5
:10241000BF4FFE01E753FF4F808191818D939C93C5
:10242000FE01EB53FF4F808191810197F1F7FE018F
:10243000EB53FF4F918380830E94E70980E064E0C3
:102440000E94870B8AE690E00E942A0AFE01EF5361
:10245000FF4F80E090E0A0EFB1E480839183A283FE
:10246000B3838E0103541F4FFE01EF53FF4F608172
:1024700071818281938120E030E04AEF54E40E9430
:102480001702DC01CB01F80180839183A283B3831F
:10249000FE01E354FF4F608171818281938120E0CE
:1024A00030E040E85FE30E947103882344F4FE01BA
:1024B000E554FF4F81E090E09183808364C0FE018A
:1024C000E354FF4F608171818281938120E03FEF6F
:1024D0004FE757E40E94110318160CF043C0FE01A9
:1024E000EF53FF4F608171818281938120E030E062
:1024F00040E251E40E941702DC01CB018E01055439
:102500001F4FBC01CD010E944100DC01CB01F8014D
:10251000918380831FC0FE01E754FF4F88EC90E059
:1025200091838083FE01E754FF4F80819181019761
:10253000F1F7FE01E754FF4F91838083DE01A5543C
:10254000BF4FFE01E554FF4F8081918101971196A5
:102550009C938E93FE01E554FF4F808191810097FB
:10256000D1F627C08E0105541F4FFE01E354FF4FE3
:1025700060817181828193810E944100DC01CB01E5
:10258000F80191838083DE01A954BF4FFE01E55419
:10259000FF4F808191818D939C93FE01E954FF4F01
:1025A000808191810197F1F7FE01E954FF4F9183FA
:1025B00080830E94E70980E064E00E94870B80E648
:1025C00090E00E942A0AFE01ED54FF4F80E090E067
:1025D000AAE7B4E480839183A283B3838E0101557B
:1025E0001F4FFE01ED54FF4F608171818281938105
:1025F00020E030E04AEF54E40E941702DC01CB01F6
:10260000F80180839183A283B383FE01E155FF4FDC
:10261000608171818281938120E030E040E85FE356
:102620000E947103882344F4FE01E355FF4F81E0CB
:1026300090E09183808364C0FE01E155FF4F60818B
:1026400071818281938120E03FEF4FE757E40E9440
:10265000110318160CF043C0FE01ED54FF4F6081CA
:1026600071818281938120E030E040E251E40E9458
:102670001702DC01CB018E0103551F4FBC01CD01B8
:102680000E944100DC01CB01F801918380831FC0CF
:10269000FE01E555FF4F88EC90E091838083FE01B9
:1026A000E555FF4F808191810197F1F7FE01E555D6
:1026B000FF4F91838083DE01A355BF4FFE01E35599
:1026C000FF4F80819181019711969C938E93FE011B
:1026D000E355FF4F808191810097D1F627C08E018D
:1026E00003551F4FFE01E155FF4F608171818281CB
:1026F00093810E944100DC01CB01F801918380832A
:10270000DE01A755BF4FFE01E355FF4F8081918148
:102710008D939C93FE01E755FF4F80819181019736
:10272000F1F7FE01E755FF4F9183808381E064E07C
:102730000E94870B84E790E00E942A0AFE01EB5575
:10274000FF4F80E090E0A0EFB1E480839183A2830B
:10275000B3838E010F551F4FFE01EB55FF4F608174
:1027600071818281938120E030E04AEF54E40E943D
:102770001702DC01CB01F80180839183A283B3832C
:10278000FE01EF55FF4F608171818281938120E0CE
:1027900030E040E85FE30E947103882344F4FE01C7
:1027A000E156FF4F81E090E09183808364C0FE0199
:1027B000EF55FF4F608171818281938120E03FEF6F
:1027C0004FE757E40E94110318160CF043C0FE01B6
:1027D000EB55FF4F608171818281938120E030E071
:1027E00040E251E40E941702DC01CB018E01015648
:1027F0001F4FBC01CD010E944100DC01CB01F8015B
:10280000918380831FC0FE01E356FF4F88EC90E068
:1028100091838083FE01E356FF4F80819181019770
:10282000F1F7FE01E356FF4F91838083DE01A1564D
:10283000BF4FFE01E156FF4F8081918101971196B4
:102840009C938E93FE01E156FF4F8081918100970A
:10285000D1F627C08E0101561F4FFE01EF55FF4FE5
:1028600060817181828193810E944100DC01CB01F2
:10287000F80191838083DE01A556BF4FFE01E1562A
:10288000FF4F808191818D939C93FE01E556FF4F10
:10289000808191810197F1F7FE01E556FF4F918309
:1028A000808381E064E00E94870B8EE790E00E94C5
:1028B0002A0AFE01E956FF4F80E090E0A0EFB1E464
:1028C00080839183A283B3838E010D561F4FFE0137
:1028D000E956FF4F608171818281938120E030E071
:1028E0004AEF54E40E941702DC01CB01F801808317
:1028F0009183A283B383FE01ED56FF4F6081718106
:102900008281938120E030E040E85FE30E94710320
:10291000882344F4FE01EF56FF4F81E090E091835D
:10292000808364C0FE01ED56FF4F6081718182811A
:10293000938120E03FEF4FE757E40E941103181600
:102940000CF043C0FE01E956FF4F60817181828126
:10295000938120E030E040E251E40E941702DC0164
:10296000CB018E010F561F4FBC01CD010E944100CB
:10297000DC01CB01F801918380831FC0FE01E15788
:10298000FF4F88EC90E091838083FE01E157FF4F79
:10299000808191810197F1F7FE01E157FF4F91830B
:1029A0008083DE01AF56BF4FFE01EF56FF4F80819F
:1029B0009181019711969C938E93FE01EF56FF4FE4
:1029C000808191810097D1F627C08E010F561F4F4D
:1029D000FE01ED56FF4F60817181828193810E94DB
:1029E0004100DC01CB01F80191838083DE01A35714
:1029F000BF4FFE01EF56FF4F808191818D939C93D5
:102A0000FE01E357FF4F808191810197F1F7FE01AD
:102A1000E357FF4F9183808381E064E00E94870B3E
:102A200084E790E00E942A0AFE01E757FF4F80E00A
:102A300090E0AAE7B4E480839183A283B3838E01FC
:102A40000B571F4FFE01E757FF4F60817181828155
:102A5000938120E030E04AEF54E40E941702DC0149
:102A6000CB01F80180839183A283B383FE01EB57EE
:102A7000FF4F608171818281938120E030E040E8E6
:102A80005FE30E947103882344F4FE01ED57FF4F7A
:102A900081E090E09183808364C0FE01EB57FF4F9B
:102AA000608171818281938120E03FEF4FE757E49D
:102AB0000E94110318160CF043C0FE01E757FF4FA8
:102AC000608171818281938120E030E040E251E4B5
:102AD0000E941702DC01CB018E010D571F4FBC0174
:102AE000CD010E944100DC01CB01F801918380837C
:102AF0001FC0FE01EF57FF4F88EC90E09183808369
:102B0000FE01EF57FF4F808191810197F1F7FE01A0
:102B1000EF57FF4F91838083DE01AD57BF4FFE011A
:102B2000ED57FF4F80819181019711969C938E9371
:102B3000FE01ED57FF4F808191810097D1F627C0AC
:102B40008E010D571F4FFE01EB57FF4F60817181C2
:102B5000828193810E944100DC01CB01F8019183C5
:102B60008083DE01A158BF4FFE01ED57FF4F8081EA
:102B700091818D939C93FE01E158FF4F808191815B
:102B80000197F1F7FE01E158FF4F918380830E9486
:102B9000E7090E94D3090E948D09CE0184529F4FFC
:102BA00020E1FC01DF01322F1D923A95E9F7FE0189
:102BB000E452FF4F89E08083FE01E452FF4F88E03A
:102BC0008183FE01E452FF4F89E08283FE01E452DB
:102BD000FF4F85E08383FE01E652FF4F1082FE0126
:102BE000E752FF4F1082FE01E852FF4F81E08083E1
:102BF000FE01E952FF4F1082FE01EA52FF4F1082A0
:102C0000FE01E552FF4F8FEF808388E890E00E943D
:102C10002A0A0E94DD0999C00E940810FE01E552AF
:102C2000FF4F8083FE01E552FF4F80818F3F09F403
:102C30008CC0FE01E552FF4F80818A3060F0FE01BA
:102C4000E552FF4F80818A3231F0FE01E552FF4F9D
:102C500080818332F1F48AE20E94130FFE01EA526E
:102C6000FF4F8081282F30E0CE0184519F4FDC013F
:102C7000A20FB31FFE01E552FF4F80818C93DE014E
:102C8000AA52BF4FFE01EA52FF4F80818F5F8C93A3
:102C90005CC0FE01E552FF4F8081A82FB0E0C05F0D
:102CA000DE4FB983A883C051D140C05FDE4FE881B9
:102CB000F981C051D140E434F10519F1C05FDE4F14
:102CC00028813981C051D1402534310551F0C05F90
:102CD000DE4F88819981C051D1408334910521F024
:102CE0002FC00E94E70931C0FE01EA52FF4F108257
:102CF0000E94E70988E890E00E942A0A0E94DD0904
:102D000024C00E94AB0980E20E94130F0E94AB090D
:102D1000FE01EA52FF4F8081282F30E0CE0184511E
:102D20009F4FFC01E20FF31F80E38083DE01AA5274
:102D3000BF4FFE01EA52FF4F808181508C9305C046
:102D4000FE01E552FF4F8FEF8083FE01E552FF4FFA
:102D50008081853409F060CFFE01E552FF4F8FEF8F
:102D60008083FE01EB52FF4F108230C0FE01EB5218
:102D7000FF4F8081282F30E0CE0184529F4FFC010D
:102D8000E20FF31F4081FE01EB52FF4F8081282F9D
:102D900030E0CE0184519F4FFC01E20FF31F808190
:102DA000481771F4FE01E752FF4F1082DE01AB526B
:102DB000BF4FFE01EB52FF4F80818F5F8C9306C0A7
:102DC000FE01E752FF4F81E080830AC0FE01EB5213
:102DD000FF4FDE01AA52BF4F90818C91981730F2BD
:102DE000FE01EA52FF4F1082FE01E752FF4F808141
:102DF000882309F09EC581E061E040E00E948F07D2
:102E000081E060E041E00E948F07FE01E952FF4F40
:102E1000108280E064E00E94870B88E990E00E94C5
:102E20002A0AFE01E558FF4F80E090E0AAEFB4E4E3
:102E300080839183A283B3838E0109581F4FFE01C3
:102E4000E558FF4F608171818281938120E030E0FD
:102E50004AEF54E40E941702DC01CB01F8018083A1
:102E60009183A283B383FE01E958FF4F6081718192
:102E70008281938120E030E040E85FE30E947103AB
:102E8000882344F4FE01EB58FF4F81E090E09183EA
:102E9000808364C0FE01E958FF4F608171818281A7
:102EA000938120E03FEF4FE757E40E94110318168B
:102EB0000CF043C0FE01E558FF4F608171818281B3
:102EC000938120E030E040E251E40E941702DC01EF
:102ED000CB018E010B581F4FBC01CD010E94410058
:102EE000DC01CB01F801918380831FC0FE01ED5806
:102EF000FF4F88EC90E091838083FE01ED58FF4FF7
:102F0000808191810197F1F7FE01ED58FF4F918388
:102F10008083DE01AB58BF4FFE01EB58FF4F80812D
:102F20009181019711969C938E93FE01EB58FF4F70
:102F3000808191810097D1F627C08E010B581F4FD9
:102F4000FE01E958FF4F60817181828193810E9467
:102F50004100DC01CB01F80191838083DE01AF5891
:102F6000BF4FFE01EB58FF4F808191818D939C9361
:102F7000FE01EF58FF4F808191810197F1F7FE012B
:102F8000EF58FF4F918380830E94E70982EA90E027
:102F90000E942A0A81E060E00E94870B8AEA90E0A2
:102FA0000E942A0AFE01E359FF4F80E090E0AAE761
:102FB000B4E480839183A283B3838E0107591F4FAA
:102FC000FE01E359FF4F608171818281938120E08E
:102FD00030E04AEF54E40E941702DC01CB01F80113
:102FE00080839183A283B383FE01E759FF4F608101
:102FF00071818281938120E030E040E85FE30E94AC
:103000007103882344F4FE01E959FF4F81E090E009
:103010009183808364C0FE01E759FF4F6081718115
:103020008281938120E03FEF4FE757E40E94110334
:1030300018160CF043C0FE01E359FF4F6081718107
:103040008281938120E030E040E251E40E94170247
:10305000DC01CB018E0109591F4FBC01CD010E943B
:103060004100DC01CB01F801918380831FC0FE0188
:10307000EB59FF4F88EC90E091838083FE01EB5980
:10308000FF4F808191810197F1F7FE01EB59FF4FCE
:1030900091838083DE01A959BF4FFE01E959FF4F9B
:1030A00080819181019711969C938E93FE01E9593D
:1030B000FF4F808191810097D1F627C08E01095979
:1030C0001F4FFE01E759FF4F60817181828193811B
:1030D0000E944100DC01CB01F80191838083DE0175
:1030E000AD59BF4FFE01E959FF4F808191818D930A
:1030F0009C93FE01ED59FF4F808191810197F1F77B
:10310000FE01ED59FF4F918380830E94E70987EB11
:1031100090E00E942A0A81E060E00E94870B82EC26
:1031200090E00E942A0AFE01E15AFF4F80E090E001
:10313000AAE7B4E480839183A283B3838E01055A06
:103140001F4FFE01E15AFF4F60817181828193819F
:1031500020E030E04AEF54E40E941702DC01CB018A
:10316000F80180839183A283B383FE01E55AFF4F68
:10317000608171818281938120E030E040E85FE3EB
:103180000E947103882344F4FE01E75AFF4F81E057
:1031900090E09183808364C0FE01E55AFF4F608117
:1031A00071818281938120E03FEF4FE757E40E94D5
:1031B000110318160CF043C0FE01E15AFF4F608165
:1031C00071818281938120E030E040E251E40E94ED
:1031D0001702DC01CB018E01075A1F4FBC01CD0144
:1031E0000E944100DC01CB01F801918380831FC064
:1031F000FE01E95AFF4F88EC90E091838083FE0145
:10320000E95AFF4F808191810197F1F7FE01E95A58
:10321000FF4F91838083DE01A75ABF4FFE01E75A1B
:10322000FF4F80819181019711969C938E93FE01AF
:10323000E75AFF4F808191810097D1F627C08E0118
:10324000075A1F4FFE01E55AFF4F6081718182814D
:1032500093810E944100DC01CB01F80191838083BE
:10326000DE01AB5ABF4FFE01E75AFF4F80819181CB
:103270008D939C93FE01EB5AFF4F808191810197C2
:10328000F1F7FE01EB5AFF4F918380830E94E7091B
:1032900006C00E940810FE01E552FF4F8083FE0128
:1032A000E552FF4F8081833231F0FE01E552FF4F3E
:1032B0008081833471F7FE01E552FF4F80818332B4
:1032C00009F062C48AEC90E00E942A0A0E94DD099B
:1032D0009DC00E940810FE01E552FF4F8083FE0151
:1032E000E552FF4F80818F3F09F490C0FE01E55207
:1032F000FF4F80818A3060F0FE01E552FF4F8081F0
:103300008A3231F0FE01E552FF4F80818332F1F4C1
:103310008AE20E94130FFE01EA52FF4F8081282F9C
:1033200030E0CE0184519F4FDC01A20FB31FFE019C
:10333000E552FF4F80818C93DE01AA52BF4FFE0100
:10334000EA52FF4F80818F5F8C9360C0FE01E5528F
:10335000FF4F8081282F30E0C25FDE4F3983288302
:10336000CE50D140C25FDE4F88819981CE50D1408E
:103370008434910539F1C25FDE4FA881B981CE5006
:10338000D140A534B10551F0C25FDE4FE881F9812B
:10339000CE50D140E334F10541F033C00E94E7093B
:1033A000FE01EA52FF4F108231C0FE01EA52FF4F88
:1033B00010820E94E7098AEC90E00E942A0A0E948B
:1033C000DD0924C00E94AB0980E20E94130F0E9415
:1033D000AB09FE01EA52FF4F8081282F30E0CE0179
:1033E00084519F4FFC01E20FF31F80E38083DE01D5
:1033F000AA52BF4FFE01EA52FF4F808181508C9349
:1034000005C0FE01E552FF4F8FEF8083FE01E552BC
:10341000FF4F8081853409F05CCFFE01E552FF4FFC
:103420008FEF8083B7C1FE01EA52FF4F108288ED13
:1034300090E00E942A0A0E94DD0999C00E940810AB
:10344000FE01E552FF4F8083FE01E552FF4F808170
:103450008F3F09F48CC0FE01E552FF4F80818A3016
:1034600060F0FE01E552FF4F80818A3231F0FE01AB
:10347000E552FF4F80818332F1F48AE20E94130FFC
:10348000FE01EA52FF4F8081282F30E0CE018450A8
:103490009F4FDC01A20FB31FFE01E552FF4F808159
:1034A0008C93DE01AA52BF4FFE01EA52FF4F80818A
:1034B0008F5F8C935CC0FE01E552FF4F8081282F07
:1034C00030E0C45FDE4F39832883CC50D140C45FE5
:1034D000DE4F88819981CC50D1408434910519F117
:1034E000C45FDE4FA881B981CC50D140A534B1056D
:1034F00051F0C45FDE4FE881F981CC50D140E33414
:10350000F10521F02FC00E94E70931C0FE01EA5207
:10351000FF4F10820E94E70987EE90E00E942A0A7E
:103520000E94DD0924C00E94AB0980E20E94130FB3
:103530000E94AB09FE01EA52FF4F8081282F30E044
:10354000CE0184519F4FFC01E20FF31F80E3808383
:10355000DE01AA52BF4FFE01EA52FF4F8081815027
:103560008C9305C0FE01E552FF4F8FEF8083FE0173
:10357000E552FF4F8081853409F060CFFE01E552AE
:10358000FF4F8FEF8083FE01EC52FF4F108230C05F
:10359000FE01EC52FF4F8081282F30E0CE01845095
:1035A0009F4FFC01E20FF31F4081FE01EC52FF4FE1
:1035B0008081282F30E0CE0184519F4FFC01E20F23
:1035C000F31F8081481771F4FE01E852FF4F10820B
:1035D000DE01AC52BF4FFE01EC52FF4F80818F5F86
:1035E0008C9306C0FE01E852FF4F81E080830AC041
:1035F000FE01EC52FF4FDE01AA52BF4F90818C9129
:10360000981730F2FE01E852FF4F8081813009F0B7
:10361000C1C08AEF90E00E942A0A81E060E00E9427
:10362000870B86E091E00E942A0AFE01EF5AFF4FC5
:1036300080E090E0AAE7B4E480839183A283B3831F
:103640008E01035B1F4FFE01EF5AFF4F60817181B6
:103650008281938120E030E04AEF54E40E94170217
:10366000DC01CB01F80180839183A283B383FE0147
:10367000E35BFF4F608171818281938120E030E0C4
:1036800040E85FE30E947103882344F4FE01E55B98
:10369000FF4F81E090E09183808364C0FE01E35B93
:1036A000FF4F608171818281938120E03FEF4FE77E
:1036B00057E40E94110318160CF043C0FE01EF5AA4
:1036C000FF4F608171818281938120E030E040E290
:1036D00051E40E941702DC01CB018E01055B1F4FF4
:1036E000BC01CD010E944100DC01CB01F8019183B6
:1036F00080831FC0FE01E75BFF4F88EC90E0918361
:103700008083FE01E75BFF4F808191810197F1F794
:10371000FE01E75BFF4F91838083DE01A55BBF4F16
:10372000FE01E55BFF4F80819181019711969C938B
:103730008E93FE01E55BFF4F808191810097D1F66A
:1037400027C08E01055B1F4FFE01E35BFF4F6081C9
:103750007181828193810E944100DC01CB01F801DB
:1037600091838083DE01A95BBF4FFE01E55BFF4FC4
:10377000808191818D939C93FE01E95BFF4F808155
:1037800091810197F1F7FE01E95BFF4F91838083FF
:103790000E94E709FE01E852FF4F8081882309F06B
:1037A00042CEFE01E852FF4F81E08083FE01ED52E0
:1037B000FF4F108223C0FE01ED52FF4F8081482F42
:1037C00050E0FE01ED52FF4F8081282F30E0CE0106
:1037D00084519F4FFC01E20FF31F2081CE018452E0
:1037E0009F4FFC01E40FF51F2083DE01AD52BF4F58
:1037F000FE01ED52FF4F80818F5F8C93FE01ED52F1
:10380000FF4FDE01AA52BF4F90818C91981798F21A
:1038100081E060E040E00E948F0787E191E00E9434
:103820002A0AFE01ED5BFF4F80E090E0AAE7B4E4D6
:1038300080839183A283B3838E01015C1F4FFE01BD
:10384000ED5BFF4F608171818281938120E030E0E8
:103850004AEF54E40E941702DC01CB01F801808397
:103860009183A283B383FE01FF966081718182817F
:10387000938120E030E040E85FE30E9471038823F9
:103880002CF481E090E09EAF8DAF46C0FE01FF9624
:10389000608171818281938120E03FEF4FE757E49F
:1038A0000E941103181664F5FE01ED5BFF4F608165
:1038B00071818281938120E030E040E251E40E94F6
:1038C0001702DC01CB01BC01CD010E944100DC01EB
:1038D000CB019EAF8DAF0FC088EC90E09CAF8BAF5B
:1038E0008BAD9CAD0197F1F79CAF8BAF8DAD9EADCD
:1038F00001979EAF8DAF8DAD9EAD009769F716C055
:10390000FE01FF9660817181828193810E94410056
:10391000DC01CB019EAF8DAF8DAD9EAD9AAF89AF6F
:1039200089AD9AAD0197F1F79AAF89AF0E94E70987
:103930002BC181E061E041E00E948F07DE01A952C6
:10394000BF4FFE01E952FF4F80818F5F8C9386E26B
:1039500091E00E942A0A80E090E0AAE7B4E48DABEF
:103960009EABAFABB8AF6DA97EA98FA998AD20E093
:1039700030E04AEF54E40E941702DC01CB0189AB2E
:103980009AABABABBCAB69A97AA98BA99CA920E087
:1039900030E040E85FE30E94710388232CF481E06B
:1039A00090E098AB8FA73FC069A97AA98BA99CA981
:1039B00020E03FEF4FE757E40E94110318164CF543
:1039C0006DA97EA98FA998AD20E030E040E251E4D6
:1039D0000E941702DC01CB01BC01CD010E94410015
:1039E000DC01CB0198AB8FA70FC088EC90E09EA7BD
:1039F0008DA78DA59EA50197F1F79EA78DA78FA5F1
:103A000098A9019798AB8FA78FA598A9009769F7F8
:103A100014C069A97AA98BA99CA90E944100DC0164
:103A2000CB0198AB8FA78FA598A99CA78BA78BA537
:103A30009CA50197F1F79CA78BA70E94E70980E05E
:103A400064E00E94870B88E391E00E942A0AFE014D
:103A5000E952FF4F8081882F90E0A0E0B0E0BC01E8
:103A6000CD010E946B0A81E062E00E94870B84E432
:103A700091E00E942A0AFE01E952FF4F8081282F1F
:103A800030E083E090E0821B930BAA2797FDA0957E
:103A9000BA2FBC01CD010E946B0A81E20E94130F74
:103AA00080E090E0AAEFB4E48FA398A7A9A7BAA7F3
:103AB0006FA178A589A59AA520E030E04AEF54E4EB
:103AC0000E941702DC01CB018BA39CA3ADA3BEA374
:103AD0006BA17CA18DA19EA120E030E040E85FE3D6
:103AE0000E94710388232CF481E090E09AA389A3BB
:103AF0003FC06BA17CA18DA19EA120E03FEF4FE7CD
:103B000057E40E94110318164CF56FA178A589A5FA
:103B10009AA520E030E040E251E40E941702DC0167
:103B2000CB01BC01CD010E944100DC01CB019AA375
:103B300089A30FC088EC90E098A38F8F8F8D98A1F8
:103B40000197F1F798A38F8F89A19AA101979AA362
:103B500089A389A19AA1009769F714C06BA17CA1E0
:103B60008DA19EA10E944100DC01CB019AA389A3F3
:103B700089A19AA19E8F8D8F8D8D9E8D0197F1F7D2
:103B80009E8F8D8F0E94E709FE01E952FF4F8081D1
:103B9000833009F03AC80E94E7090E94790981E55B
:103BA00091E00E942A0A81E062E041E00E948F07D2
:103BB00080E090E0A8E4B3E4898F9A8FAB8FBC8F4C
:103BC000698D7A8D8B8D9C8D20E030E04AEF54E436
:103BD0000E941702DC01CB018D8B9E8BAF8BB88FBF
:103BE0006D897E898F89988D20E030E040E85FE321
:103BF0000E94710388232CF481E090E09C8B8B8BD6
:103C00003FC06D897E898F89988D20E03FEF4FE717
:103C100057E40E94110318164CF5698D7A8D8B8D2F
:103C20009C8D20E030E040E251E40E941702DC016C
:103C3000CB01BC01CD010E944100DC01CB019C8B7A
:103C40008B8B0FC088EC90E09A8B898B89899A893D
:103C50000197F1F79A8B898B8B899C8901979C8BB3
:103C60008B8B8B899C89009769F714C06D897E893D
:103C70008F89988D0E944100DC01CB019C8B8B8B3E
:103C80008B899C89988B8F878F8598890197F1F70D
:103C9000988B8F8781E062E040E00E948F0780E090
:103CA00090E0A8E4B3E48B879C87AD87BE876B85E3
:103CB0007C858D859E8520E030E04AEF54E40E94AB
:103CC0001702DC01CB018F839887A987BA876F81A0
:103CD000788589859A8520E030E040E85FE30E949E
:103CE000710388232CF481E090E09E838D833FC094
:103CF0006F81788589859A8520E03FEF4FE757E40B
:103D00000E94110318164CF56B857C858D859E8568
:103D100020E030E040E251E40E941702DC01CB01D8
:103D2000BC01CD010E944100DC01CB019E838D834B
:103D30000FC088EC90E09C838B838B819C810197E2
:103D4000F1F79C838B838D819E8101979E838D8368
:103D50008D819E81009769F726CF6F81788589854F
:103D60009A850E944100DC01CB019E838D838D8169
:103D70009E819A83898389819A810197F1F79A8339
:103D8000898311CF97FB092E05260ED057FD04D04D
:103D900014D00AD0001C38F45095409530952195E8
:103DA0003F4F4F4F5F4F0895F6F790958095709570
:103DB00061957F4F8F4F9F4F0895A1E21A2EAA1B46
:103DC000BB1BFD010DC0AA1FBB1FEE1FFF1FA217CB
:103DD000B307E407F50720F0A21BB30BE40BF50BC8
:103DE000661F771F881F991F1A9469F76095709551
:103DF000809590959B01AC01BD01CF0108952F9254
:103E00003F924F925F926F927F928F929F92AF926A
:103E1000BF92CF92DF92EF92FF920F931F93CF93B7
:103E2000DF93CDB7DEB7CA1BDB0B0FB6F894DEBF4E
:103E30000FBECDBF09942A88398848885F846E8474
:103E40007D848C849B84AA84B984C884DF80EE80BE
:103E5000FD800C811B81AA81B981CE0FD11D0FB6C7
:103E6000F894DEBF0FBECDBFED010895F894FFCFEB
:103E70004D61726B20456861620062616845206B2C
:103E800061724D00536166655F4C6F636B006B63DD
:103E90006F4C5F6566615300456E746572205061BA
:103EA0007373776F72643A0057454C434F4D45200A
:103EB00021005072657373202300466F72204E6597
:103EC000772050617373004F5220507265737320D6
:103ED0004300546F204261636B004E657720506150
:103EE0007373776F72643A0052652D656E746572F4
:103EF00020506173733A0052652D656E74657220AF
:103F000050617373776F72643A004E6F204D617425
:103F10006368696E6700506C6561736520747279BF
:103F200020616761696E0050617373204368616E40
:103F300067656420210057726F6E6720506173734C
:103F4000776F726420212000547269616C204E6F7B
:103F5000203A2000547269616C73204C6566743A93
:103F60000053414645204953204C4F434B45442183
:103F700000000000000000000001020345040506E7
:0A3F800043070809442A00235F00EC
:00000001FF
